S0270000534556454E2D5345474D454E542D444953504C415928535344295F544553542E737265631F
S11300000C942A000C943F000C943F000C943F0085
S11300100C943F000C943F000C943F000C943F0060
S11300200C943F000C943F000C943F000C943F0050
S11300300C943F000C943F000C943F000C943F0040
S11300400C943F000C943F000C943F000C943F0030
S11300500C943F0011241FBECFE5D8E0DEBFCDBF16
S113006010E0A0E6B0E0ECEBF3E002C005900D92E6
S1130070AA36B107D9F70E9475010C94DC010C94DF
S11300800000843008F082C0683008F07FC042303D
S113009008F07CC0813009F441C030F0823009F1AD
S11300A0833009F458C00895442319F0413071F0A5
S11300B018C02AB381E090E0062E02C0880F991F71
S11300C00A94E2F7809582238ABB0BC02AB381E0AD
S11300D090E0062E02C0880F991F0A94E2F7822B43
S11300E08ABB442319F0413071F018C027B381E072
S11300F090E0062E02C0880F991F0A94E2F78095BB
S1130100822387BB0BC027B381E090E0062E02C098
S1130110880F991F0A94E2F7822B87BB442319F0B6
S1130120413071F018C024B381E090E0062E02C083
S1130130880F991F0A94E2F78095822384BB0BC031
S113014024B381E090E0062E02C0880F991F0A9420
S1130150E2F7822B84BB442319F0413069F00895FF
S113016021B381E090E002C0880F991F6A95E2F7FD
S11301708095822381BB089521B381E090E002C081
S1130180880F991F6A95E2F7822B81BB089584300A
S113019008F082C0683008F07FC0423008F07CC0AC
S11301A0813009F441C030F0823009F1833009F420
S11301B058C00895442319F0413071F018C02BB38E
S11301C081E090E0062E02C0880F991F0A94E2F79E
S11301D0809582238BBB0BC02BB381E090E0062E6D
S11301E002C0880F991F0A94E2F7822B8BBB442329
S11301F019F0413071F018C028B381E090E0062E68
S113020002C0880F991F0A94E2F78095822388BB65
S11302100BC028B381E090E0062E02C0880F991F1E
S11302200A94E2F7822B88BB442319F0413071F021
S113023018C025B381E090E0062E02C0880F991FF4
S11302400A94E2F78095822385BB0BC025B381E035
S113025090E0062E02C0880F991F0A94E2F7822BC1
S113026085BB442319F0413069F0089522B381E03D
S113027090E002C0880F991F6A95E2F78095822367
S113028082BB089522B381E090E002C0880F991FD9
S11302906A95E2F7822B82BB0895843098F49FEF2D
S11302A0960F9E3F78F0813051F028F0823029F08B
S11302B0833039F008956ABB089567BB089564BB21
S11302C0089561BB0895843078F4813051F028F0AA
S11302D0823029F0833039F0089569BB089566BBF4
S11302E0089563BB089560BB08950E947B018BE46D
S11302F00E948A01FCCF6FEF80E00E944D0141E033
S113030061E082E00E94410041E062E082E00E94FC
S113031041000895CF93DF93843608F04AC0EDEC92
S11303208E9FE12D1124CE2FC695C695C6952C2FF0
S1130330220F922F990F990F920FD82FD91B40E0BB
S113034061E082E00E94C70040E062E082E00E9437
S1130350C700EC2FF0E0E05AFF4F608180E00E947C
S1130360630141E061E082E00E94C7008FE39CE901
S11303700197F1F700C0000040E061E082E00E94D4
S1130380C700ED2FF0E0E05AFF4F608180E00E944B
S1130390630141E062E082E00E94C7008FE39CE9D0
S11303A00197F1F700C0000040E062E082E00E94A3
S10F03B0C700DF91CF910895F894FFCFAF
S10D03BC3F065B4F666D7D077F6FFF
S9030000FC
